:100000000C9462000C948A000C948A000C948A0070
:100010000C948A000C948A000C948A000C948A0038
:100020000C948A000C948A000C948A000C948A0028
:100030000C948A000C948A000C948A000C948A0018
:100040000C9473030C948A000C948A000C948A001C
:100050000C948A000C948A000C948A000C948A00F8
:100060000C948A000C948A000000000024002700F1
:100070002A0000000000250028002B0000000008D6
:10008000000201000003040700000000000000005F
:1000900000000000230026002900040404040404D6
:1000A0000404020202020202030303030303010227
:1000B00004081020408001020408102001020408F6
:1000C0001020570511241FBECFEFD8E0DEBFCDBFF3
:1000D00011E0A0E0B1E0E8EEFDE002C005900D9275
:1000E000A433B107D9F721E0A4E3B1E001C01D9228
:1000F000AD35B207E1F710E0C2E6D0E004C02197C9
:10010000FE010E94EC06C136D107C9F70E94020425
:100110000C94F2060C940000AF92BF92CF92DF9243
:10012000EF92FF920F931F93CF93DF936C017B01AC
:100130008B01040F151FEB015E01AE18BF08C0173D
:10014000D10759F06991D601ED91FC910190F081B0
:10015000E02DC6010995892B79F7C501DF91CF9173
:100160001F910F91FF90EF90DF90CF90BF90AF90D5
:10017000089590E0FC01E458FF4F2491FC01E25502
:10018000FF4F3491FC01E656FF4FE491EE23C9F096
:10019000222339F0233001F1A8F4213019F1223063
:1001A00029F1F0E0EE0FFF1FEE58FF4FA591B4913B
:1001B0008FB7F894EC91611126C030953E233C93A3
:1001C0008FBF08952730A9F02830C9F0243049F7AF
:1001D000809180008F7D03C0809180008F77809315
:1001E0008000DFCF84B58F7784BDDBCF84B58F7D72
:1001F000FBCF8091B0008F778093B000D2CF8091F9
:10020000B0008F7DF9CF3E2BDACFCF93DF9390E014
:10021000FC01E255FF4F249186569F4FFC018491CB
:100220008823D1F090E0880F991FFC01E859FF4F17
:10023000A591B491FC01EE58FF4FC591D491611185
:100240000EC09FB7F8948C91E22FE0958E238C938B
:100250002881E223E8839FBFDF91CF9108958FB774
:10026000F894EC91E22BEC938FBFF6CF3FB7F89464
:100270008091390190913A01A0913B01B0913C01EC
:1002800026B5A89B05C02F3F19F00196A11DB11DF1
:100290003FBFBA2FA92F982F8827BC01CD01620F2D
:1002A000711D811D911D42E0660F771F881F991FE8
:1002B0004A95D1F708958F929F92AF92BF92CF92B5
:1002C000DF92EF92FF920E9436014B015C0188EEB3
:1002D000C82E83E0D82EE12CF12C0E94360168193B
:1002E00079098A099B09683E734081059105A8F345
:1002F00021E0C21AD108E108F10888EE880E83E0F7
:10030000981EA11CB11CC114D104E104F10429F709
:10031000FF90EF90DF90CF90BF90AF909F908F9025
:100320000895089590E080E00895FC010190002078
:10033000E9F73197AF01481B590BBC0185E491E007
:100340000C948C000F931F9390E0FC01E255FF4F3B
:100350006491FC01E656FF4FE491F0E0EE0FFF1FC1
:10036000E057FF4F8591949100E412E42FE030E0D4
:10037000462F0E94BD03611571058105910529F085
:100380006F5F7F4F8F4F9F4F9F701F910F91089509
:10039000CF93DF93EC0160E08E810E94B90061E0B1
:1003A0008E810E94B90060E08E810E94B9008BE8C6
:1003B00091E00197F1F7DF91CF910895CF92DF920D
:1003C000EF92FF920F931F93CF93DF936C017C0109
:1003D00087E0E80EF11CD0E0C0E0062F10E0B80185
:1003E0000C2E02C0759567950A94E2F76170F701CB
:1003F00081917F010E94B9002196C430D10579F71F
:10040000C601DF91CF911F910F91FF90EF90DF9088
:10041000CF900C94C801CF92DF92EF92FF920F938E
:100420001F93CF93DF93EC01F62E642F8C810E94F3
:10043000B9008D818F3F19F060E00E94B9000F2D47
:1004400010E08F8584FF25C06E0187E0C80ED11CA7
:10045000F12CE12CB8010E2C02C0759567950A9419
:10046000E2F76170F60181916F010E94B900FFEF20
:10047000EF1AFF0A88E0E816F10461F7CE01DF9178
:10048000CF911F910F91FF90EF90DF90CF900C9440
:10049000C801B80184E0759567958A95E1F7CE01AA
:1004A0000E94DE016F2DCE01DF91CF911F910F9140
:1004B000FF90EF90DF90CF900C94DE0140E0682F2A
:1004C00085E491E00C940B0281E00E945E028BE3D4
:1004D0009FE10197F1F70895CF93DF93823029F4DC
:1004E0009091540198609093540180935801109218
:1004F000590180E480935A0180E180935B0180E59B
:1005000080935C0161E0809149010E940501809126
:100510004A018F3F19F061E00E94050161E080917E
:100520004B010E940501C5E4D1E09E0125543140F4
:100530008091540184FD0BC084E090E0219628173F
:10054000390744F461E08E810E940501EECF88E016
:1005500090E0F4CF8BE39DE00197F1F760E08091AC
:1005600049010E94B90060E080914B010E94B900EE
:1005700080914A018F3F19F060E00E94B90080919C
:10058000540184FD34C063E085E491E00E94DE0103
:10059000CBE4D6E4CE010197F1F763E085E491E086
:1005A0000E94DE012197F1F763E085E491E00E946B
:1005B000DE0183E592E00197F1F762E085E491E0E6
:1005C0000E94DE018091540180620E945E0284E0FC
:1005D000809355018CE00E945E020E94640282E0DA
:1005E0008093560186E0DF91CF910C945E02806289
:1005F0000E945E028BE496E40197F1F7809154012A
:1006000080620E945E0283E592E00197F1F780919B
:10061000540180620E945E02D5CFE1E080915801D2
:100620008111E0E0E195F0E0EB5BFE4F84898068AA
:100630000C945E0241E00E940B0281E090E008957C
:100640008F929F92AF92BF92CF92DF92EF92FF92E2
:10065000CF93DF93CDB7DEB7A1970FB6F894DEBF87
:100660000FBECDBF6B017C0141E06DE285E491E0FE
:100670000E940B0222273327A9012C193D094E099C
:100680005F0919A27E0181E2E80EF11C8AE0882E42
:10069000912CA12CB12CCA01B901A50194010E9491
:1006A000AB06605DF70162937F01211531054105BD
:1006B000510589F790E080E0309719F0CF010E9452
:1006C00095010196A1960FB6F894DEBF0FBECDBF7F
:1006D000DF91CF91FF90EF90DF90CF90BF90AF90E0
:1006E0009F908F9008951F920F920FB60F92112432
:1006F0002F933F938F939F93AF93BF938091350137
:1007000090913601A0913701B091380130913401B8
:1007100023E0230F2D3758F50196A11DB11D20931D
:1007200034018093350190933601A0933701B09343
:1007300038018091390190913A01A0913B01B0912B
:100740003C010196A11DB11D8093390190933A019E
:10075000A0933B01B0933C01BF91AF919F918F91CA
:100760003F912F910F900FBE0F901F90189526E884
:10077000230F0296A11DB11DD2CFCF92DF92EF922F
:10078000FF920F931F93E82FF92F05C00150110915
:100790002109310961F1908196239417B9F305C0BD
:1007A000015011092109310911F190819623941307
:1007B000F7CFC12CD12CE12CF12C0AC08FEFC81A35
:1007C000D80AE80AF80A0C151D052E053F0579F030
:1007D00080818623841791F36C2D7D2D8E2D9F2D86
:1007E0001F910F91FF90EF90DF90CF90089560E000
:1007F00070E080E090E01F910F91FF90EF90DF900C
:10080000CF900895CF93DF93CDB7DEB7A1970FB602
:10081000F894DEBF0FBECDBF789484B5826084BDEE
:1008200084B5816084BD85B5826085BD85B58160F4
:1008300085BD80916E00816080936E001092810072
:10084000809181008260809381008091810081602D
:1008500080938100809180008160809380008091EE
:10086000B10084608093B1008091B000816080937A
:10087000B00080917A00846080937A0080917A0041
:10088000826080937A0080917A00816080937A0000
:1008900080917A00806880937A001092C10082E093
:1008A0000E946C0261E083E00E94050160E082E04A
:1008B0000E94050161E08BE00E94050160E08AE092
:1008C0000E94050183E0C82ED12C93E2E92EF12C81
:1008D00022E0822E912CA12CB12C3AE0432E512CF7
:1008E000612C712C40E0242E40E0342E0E946402E2
:1008F0000E940D0360E083E00E94B900C6010197E9
:10090000F1F761E083E00E94B900C7010197F1F7B8
:1009100060E083E00E94B90082E00E94A201A5018C
:1009200094010E94CD06CA01B9010E941F062DEC58
:100930003CEC48EE51E40E9475050E94E705609387
:10094000410170934201809343019093440160E020
:100950008BE00E94B900C6010197F1F761E08BE0DE
:100960000E94B900C7010197F1F760E08BE00E9497
:10097000B9008AE00E94A201A50194010E94CD065F
:10098000CA01B9010E941F062DEC3CEC48EE51E46F
:100990000E9475050E94E70560933D0170933E013A
:1009A00080933F01909340010091410110914201D9
:1009B0002091430130914401093C11052105310585
:1009C00008F041C00E9464020E940D038CE091E097
:1009D0000E94950160914101709142018091430113
:1009E0009091440197FF03C00E9420031BC09B010C
:1009F000AC0119A28E010F5D1F4FCA01B901A301FD
:100A000092010E94AB06605DF80162938F0121158F
:100A100031054105510589F70115110519F0C80186
:100A20000E9495018AE191E00E9495018DE191E09B
:100A30000E9495010E945B012114310409F456CFF4
:100A40000E94000053CF693C71058105910540F576
:100A50000E9464020E940D0380E291E00E949501D1
:100A600060913D0170913E0180913F019091400164
:100A700097FDBACF9B01AC0119A28E010F5D1F4FEC
:100A8000CA01B901A30192010E94AB06605DF801A1
:100A900062938F01211531054105510589F7BCCFBE
:100AA0000E9464020E940D038FE291E0C1CFE5E451
:100AB000F1E01382128284E091E09183808389E0E7
:100AC00084838FEF858388E0868384E0878385E055
:100AD000808786E0818787E0828713861486158663
:100AE0001686178681E00C946C020E9489050C948E
:100AF00071060E946A0658F00E94630640F029F4CD
:100B00005F3F29F00C945A0651110C94A5060C94E1
:100B100060060E94820668F39923B1F3552391F38E
:100B2000951B550BBB27AA2762177307840738F05C
:100B30009F5F5F4F220F331F441FAA1FA9F335D0B9
:100B40000E2E3AF0E0E832D091505040E695001C6D
:100B5000CAF72BD0FE2F29D0660F771F881FBB1F27
:100B6000261737074807AB07B0E809F0BB0B802D05
:100B7000BF01FF2793585F4F3AF09E3F510578F031
:100B80000C945A060C94A5065F3FE4F3983ED4F308
:100B9000869577956795B795F7959F5FC9F7880F05
:100BA000911D9695879597F90895E1E0660F771F57
:100BB000881FBB1F621773078407BA0720F0621BE8
:100BC000730B840BBA0BEE1F88F7E09508950E9413
:100BD000EE056894B1110C94A50608950E948A064A
:100BE00088F09F5798F0B92F9927B751B0F0E1F0EE
:100BF000660F771F881F991F1AF0BA95C9F714C09E
:100C0000B13091F00E94A406B1E008950C94A406BE
:100C1000672F782F8827B85F39F0B93FCCF38695D6
:100C200077956795B395D9F73EF490958095709533
:100C300061957F4F8F4F9F4F0895E89409C097FBB0
:100C40003EF490958095709561957F4F8F4F9F4FA3
:100C50009923A9F0F92F96E9BB279395F6958795E7
:100C600077956795B795F111F8CFFAF4BB0F11F4AA
:100C700060FF1BC06F5F7F4F8F4F9F4F16C0882351
:100C800011F096E911C0772321F09EE8872F762F87
:100C900005C0662371F096E8862F70E060E02AF0C8
:100CA0009A95660F771F881FDAF7880F96958795B4
:100CB00097F9089597F99F6780E870E060E00895DC
:100CC0009FEF80EC089500240A9416161706180664
:100CD0000906089500240A94121613061406050640
:100CE0000895092E0394000C11F4882352F0BB0FD1
:100CF00040F4BF2B11F460FF04C06F5F7F4F8F4F34
:100D00009F4F089557FD9058440F551F59F05F3F6E
:100D100071F04795880F97FB991F61F09F3F79F01D
:100D200087950895121613061406551FF2CF46959F
:100D3000F1DF08C0161617061806991FF1CF869521
:100D40007105610508940895E894BB276627772705
:100D5000CB0197F90895A1E21A2EAA1BBB1BFD0136
:100D60000DC0AA1FBB1FEE1FFF1FA217B307E4078A
:100D7000F50720F0A21BB30BE40BF50B661F771FE2
:100D8000881F991F1A9469F76095709580959095C2
:100D90009B01AC01BD01CF010895052E97FB1EF408
:100DA00000940E94E40657FD07D00E94AB0607FCA2
:100DB00003D04EF40C94E40650954095309521955F
:100DC0003F4F4F4F5F4F0895909580957095619577
:100DD0007F4F8F4F9F4F0895EE0FFF1F0590F491A7
:080DE000E02D0994F894FFCF07
:100DE800000000001A038C00920191015761726E95
:100DF800696E67206C6566743A00636D000D0A00C1
:100E08005761726E696E672072696768743A005339
:040E180061666500AA
:00000001FF
